{
  "_format": "hh-sol-artifact-1",
  "contractName": "ProjectHandler",
  "sourceName": "contracts/ProjectHandler.sol",
  "abi": [
    {
      "inputs": [
        {
          "internalType": "address",
          "name": "_financeValidator",
          "type": "address"
        }
      ],
      "stateMutability": "nonpayable",
      "type": "constructor"
    },
    {
      "inputs": [
        {
          "internalType": "uint256",
          "name": "available",
          "type": "uint256"
        },
        {
          "internalType": "uint256",
          "name": "required",
          "type": "uint256"
        }
      ],
      "name": "InsufficientBalance",
      "type": "error"
    },
    {
      "inputs": [],
      "name": "Unauthorized",
      "type": "error"
    },
    {
      "anonymous": false,
      "inputs": [
        {
          "indexed": true,
          "internalType": "uint256",
          "name": "_transactionId",
          "type": "uint256"
        },
        {
          "indexed": false,
          "internalType": "uint256",
          "name": "_fundAmount",
          "type": "uint256"
        }
      ],
      "name": "FundDeposit",
      "type": "event"
    },
    {
      "anonymous": false,
      "inputs": [
        {
          "indexed": true,
          "internalType": "uint256",
          "name": "_transactionId",
          "type": "uint256"
        },
        {
          "indexed": false,
          "internalType": "uint256",
          "name": "_withdrawAmount",
          "type": "uint256"
        }
      ],
      "name": "FundWithdrawal",
      "type": "event"
    },
    {
      "anonymous": false,
      "inputs": [
        {
          "indexed": true,
          "internalType": "address",
          "name": "_notFinanceTeam",
          "type": "address"
        },
        {
          "indexed": false,
          "internalType": "uint256",
          "name": "_depositAmount",
          "type": "uint256"
        }
      ],
      "name": "NotFinanceTeam",
      "type": "event"
    },
    {
      "anonymous": false,
      "inputs": [
        {
          "indexed": true,
          "internalType": "address",
          "name": "_notFinanceValidator",
          "type": "address"
        },
        {
          "indexed": false,
          "internalType": "address",
          "name": "_recipientWallet",
          "type": "address"
        },
        {
          "indexed": false,
          "internalType": "uint256",
          "name": "_withdrawAmount",
          "type": "uint256"
        }
      ],
      "name": "NotFinanceValidator",
      "type": "event"
    },
    {
      "anonymous": false,
      "inputs": [
        {
          "indexed": true,
          "internalType": "address",
          "name": "_notOwner",
          "type": "address"
        }
      ],
      "name": "NotOwner",
      "type": "event"
    },
    {
      "anonymous": false,
      "inputs": [
        {
          "indexed": true,
          "internalType": "string",
          "name": "noteOfCompletion",
          "type": "string"
        },
        {
          "indexed": false,
          "internalType": "uint256",
          "name": "_transactionId",
          "type": "uint256"
        },
        {
          "indexed": false,
          "internalType": "uint256",
          "name": "_totalFundsAllocated",
          "type": "uint256"
        },
        {
          "indexed": false,
          "internalType": "uint256",
          "name": "_withdrawalBalanceAmount",
          "type": "uint256"
        }
      ],
      "name": "ProjectCompleted",
      "type": "event"
    },
    {
      "stateMutability": "payable",
      "type": "fallback"
    },
    {
      "inputs": [],
      "name": "Deposit",
      "outputs": [],
      "stateMutability": "payable",
      "type": "function"
    },
    {
      "inputs": [],
      "name": "getBalance",
      "outputs": [
        {
          "internalType": "uint256",
          "name": "",
          "type": "uint256"
        }
      ],
      "stateMutability": "view",
      "type": "function"
    },
    {
      "inputs": [],
      "name": "getReceipients",
      "outputs": [
        {
          "internalType": "address[]",
          "name": "",
          "type": "address[]"
        }
      ],
      "stateMutability": "view",
      "type": "function"
    },
    {
      "inputs": [
        {
          "internalType": "address",
          "name": "_recipientWallet",
          "type": "address"
        }
      ],
      "name": "getReceipientsTotalAmountTransferred",
      "outputs": [
        {
          "internalType": "uint256",
          "name": "",
          "type": "uint256"
        }
      ],
      "stateMutability": "view",
      "type": "function"
    },
    {
      "inputs": [],
      "name": "getTotalFundsAllocated",
      "outputs": [
        {
          "internalType": "uint256",
          "name": "",
          "type": "uint256"
        }
      ],
      "stateMutability": "view",
      "type": "function"
    },
    {
      "inputs": [],
      "name": "getTotalTransactions",
      "outputs": [
        {
          "internalType": "uint256",
          "name": "",
          "type": "uint256"
        }
      ],
      "stateMutability": "view",
      "type": "function"
    },
    {
      "inputs": [],
      "name": "projectCompleted",
      "outputs": [],
      "stateMutability": "nonpayable",
      "type": "function"
    },
    {
      "inputs": [
        {
          "internalType": "address payable",
          "name": "_recipientWallet",
          "type": "address"
        },
        {
          "internalType": "uint256",
          "name": "_withdrawAmount",
          "type": "uint256"
        }
      ],
      "name": "withdraw",
      "outputs": [],
      "stateMutability": "nonpayable",
      "type": "function"
    },
    {
      "stateMutability": "payable",
      "type": "receive"
    }
  ],
  "bytecode": "0x60c060405234801561001057600080fd5b5060405161092138038061092183398101604081905261002f91610058565b33606090811b6080521b6001600160601b03191660a05260008080556001819055600255610088565b60006020828403121561006a57600080fd5b81516001600160a01b038116811461008157600080fd5b9392505050565b60805160601c60a05160601c6108606100c16000396000818161017b0152818161037a01526104c2015260006102f601526108606000f3fe60806040526004361061007f5760003560e01c8063b5c604ff1161004e578063b5c604ff14610125578063c62218781461013a578063ed21248c1461008e578063f3fef3a31461014f5761008e565b806312065fe0146100965780635be2c0bb146100b85780636b9171b6146100ee57806391585a3f146101105761008e565b3661008e5761008c61016f565b005b61008c61016f565b3480156100a257600080fd5b50475b6040519081526020015b60405180910390f35b3480156100c457600080fd5b506100a56100d3366004610730565b6001600160a01b031660009081526004602052604090205490565b3480156100fa57600080fd5b50610103610289565b6040516100af9190610780565b34801561011c57600080fd5b506000546100a5565b34801561013157600080fd5b506002546100a5565b34801561014657600080fd5b5061008c6102eb565b34801561015b57600080fd5b5061008c61016a366004610754565b6104b5565b34336001600160a01b037f00000000000000000000000000000000000000000000000000000000000000001614610206576001600260008282546101b391906107cd565b909155505060405181815233907fd275d3ffe4d4e930e6f2afda7928348641ac6e3192c0ac7c75982b1a00141a31906020015b60405180910390a26040516282b42960e81b815260040160405180910390fd5b3460008082825461021791906107cd565b92505081905550346001600082825461023091906107cd565b9250508190555060016002600082825461024a91906107cd565b90915550506002546040513481527fe8f02df8adc7ef81d160a79dc8bcef87283601a5d979bb989b892a0efb8430a0906020015b60405180910390a250565b606060038054806020026020016040519081016040528092919081815260200182805480156102e157602002820191906000526020600020905b81546001600160a01b031681526001909101906020018083116102c3575b5050505050905090565b336001600160a01b037f000000000000000000000000000000000000000000000000000000000000000016146103765760016002600082825461032e91906107cd565b909155505060405133907f245aecd3fabbd17d6c3c92dc7f0ab916ea8cbf6fc1862c8b56893090ac3fff4c90600090a26040516282b42960e81b815260040160405180910390fd5b60007f00000000000000000000000000000000000000000000000000000000000000006001600160a01b03164760405160006040518083038185875af1925050503d80600081146103e3576040519150601f19603f3d011682016040523d82523d6000602084013e6103e8565b606091505b505090508061042d5760405162461bcd60e51b815260206004820152600c60248201526b53656e64204661696c65642160a01b60448201526064015b60405180910390fd5b600060018190555060016002600082825461044891906107cd565b90915550506040805170141c9bda9958dd0810dbdb5c1b195d1959607a1b815281519081900360110181206002546000546001549184526020840152928201929092527fb6daa4fb227dacfcbb2cbbcea69cd9b9514d8f5a4b0724e6dd78197e9c0d560f9060600161027e565b8181336001600160a01b037f00000000000000000000000000000000000000000000000000000000000000001614610540576001600260008282546104fa91906107cd565b9091555050604080516001600160a01b03841681526020810183905233917f927c0df455b4505308aee64844b3e088381e0abf008d0d9c74367b7d0c295baf91016101e6565b6001548311156105895760016002600082825461055d91906107cd565b909155505060015460405163cf47918160e01b8152600481019190915260248101849052604401610424565b6000846001600160a01b03168460405160006040518083038185875af1925050503d80600081146105d6576040519150601f19603f3d011682016040523d82523d6000602084013e6105db565b606091505b505090508061062c5760405162461bcd60e51b815260206004820152601d60248201527f5472616e7366657220746f20726563697069656e74204661696c6564210000006044820152606401610424565b836001600082825461063e91906107e5565b9250508190555060016002600082825461065891906107cd565b90915550506002546040518581527faf86826eab3a8d91f1b909aa8425cba1c705cbc54ddd34353c98ea1caf2e0c319060200160405180910390a26001600160a01b0385166000908152600460205260409020546106fc57600380546001810182556000919091527fc2575a0e9e593c00f959f8c92f12db2869c3395a3b0502d05e2516446f71f85b0180546001600160a01b0319166001600160a01b0387161790555b6001600160a01b038516600090815260046020526040812080548692906107249084906107cd565b90915550505050505050565b60006020828403121561074257600080fd5b813561074d81610812565b9392505050565b6000806040838503121561076757600080fd5b823561077281610812565b946020939093013593505050565b6020808252825182820181905260009190848201906040850190845b818110156107c15783516001600160a01b03168352928401929184019160010161079c565b50909695505050505050565b600082198211156107e0576107e06107fc565b500190565b6000828210156107f7576107f76107fc565b500390565b634e487b7160e01b600052601160045260246000fd5b6001600160a01b038116811461082757600080fd5b5056fea264697066735822122082e7c3dbb3cc0a6534c29475d79088427a0c388fbdd8da7c6ccc825764cdc8d164736f6c63430008070033",
  "linkReferences": {},
  "deployedLinkReferences": {}
}